{
  "_format": "hh-sol-artifact-1",
  "contractName": "Marketplace",
  "sourceName": "src/backend/contracts/Marketplace.sol",
  "abi": [
    {
      "inputs": [
        {
          "internalType": "uint256",
          "name": "_feePercent",
          "type": "uint256"
        }
      ],
      "stateMutability": "nonpayable",
      "type": "constructor"
    },
    {
      "anonymous": false,
      "inputs": [
        {
          "indexed": false,
          "internalType": "uint256",
          "name": "itemId",
          "type": "uint256"
        },
        {
          "indexed": true,
          "internalType": "address",
          "name": "nft",
          "type": "address"
        },
        {
          "indexed": false,
          "internalType": "uint256",
          "name": "tokenId",
          "type": "uint256"
        },
        {
          "indexed": false,
          "internalType": "uint256",
          "name": "price",
          "type": "uint256"
        },
        {
          "indexed": true,
          "internalType": "address",
          "name": "seller",
          "type": "address"
        },
        {
          "indexed": true,
          "internalType": "address",
          "name": "buyer",
          "type": "address"
        }
      ],
      "name": "Bought",
      "type": "event"
    },
    {
      "anonymous": false,
      "inputs": [
        {
          "indexed": false,
          "internalType": "uint256",
          "name": "itemId",
          "type": "uint256"
        },
        {
          "indexed": true,
          "internalType": "address",
          "name": "nft",
          "type": "address"
        },
        {
          "indexed": false,
          "internalType": "uint256",
          "name": "tokenId",
          "type": "uint256"
        },
        {
          "indexed": false,
          "internalType": "uint256",
          "name": "price",
          "type": "uint256"
        },
        {
          "indexed": true,
          "internalType": "address",
          "name": "seller",
          "type": "address"
        }
      ],
      "name": "Offered",
      "type": "event"
    },
    {
      "inputs": [],
      "name": "feeAccount",
      "outputs": [
        {
          "internalType": "address payable",
          "name": "",
          "type": "address"
        }
      ],
      "stateMutability": "view",
      "type": "function"
    },
    {
      "inputs": [],
      "name": "feePercent",
      "outputs": [
        {
          "internalType": "uint256",
          "name": "",
          "type": "uint256"
        }
      ],
      "stateMutability": "view",
      "type": "function"
    },
    {
      "inputs": [
        {
          "internalType": "uint256",
          "name": "_itemId",
          "type": "uint256"
        }
      ],
      "name": "getTotalPrice",
      "outputs": [
        {
          "internalType": "uint256",
          "name": "",
          "type": "uint256"
        }
      ],
      "stateMutability": "view",
      "type": "function"
    },
    {
      "inputs": [],
      "name": "itemCount",
      "outputs": [
        {
          "internalType": "uint256",
          "name": "",
          "type": "uint256"
        }
      ],
      "stateMutability": "view",
      "type": "function"
    },
    {
      "inputs": [
        {
          "internalType": "uint256",
          "name": "",
          "type": "uint256"
        }
      ],
      "name": "items",
      "outputs": [
        {
          "internalType": "uint256",
          "name": "itemId",
          "type": "uint256"
        },
        {
          "internalType": "contract IERC721",
          "name": "nft",
          "type": "address"
        },
        {
          "internalType": "uint256",
          "name": "tokenId",
          "type": "uint256"
        },
        {
          "internalType": "uint256",
          "name": "price",
          "type": "uint256"
        },
        {
          "internalType": "address payable",
          "name": "seller",
          "type": "address"
        },
        {
          "internalType": "bool",
          "name": "sold",
          "type": "bool"
        }
      ],
      "stateMutability": "view",
      "type": "function"
    },
    {
      "inputs": [
        {
          "internalType": "contract IERC721",
          "name": "_nft",
          "type": "address"
        },
        {
          "internalType": "uint256",
          "name": "_tokenId",
          "type": "uint256"
        },
        {
          "internalType": "uint256",
          "name": "_price",
          "type": "uint256"
        }
      ],
      "name": "makeItem",
      "outputs": [],
      "stateMutability": "nonpayable",
      "type": "function"
    },
    {
      "inputs": [
        {
          "internalType": "uint256",
          "name": "_itemId",
          "type": "uint256"
        }
      ],
      "name": "purchaseItem",
      "outputs": [],
      "stateMutability": "payable",
      "type": "function"
    }
  ],
  "bytecode": "0x60c060405234801561001057600080fd5b5060405161129c38038061129c83398181016040528101906100329190610094565b60016000819055503373ffffffffffffffffffffffffffffffffffffffff1660808173ffffffffffffffffffffffffffffffffffffffff1660601b815250508060a08181525050506100de565b60008151905061008e816100c7565b92915050565b6000602082840312156100a657600080fd5b60006100b48482850161007f565b91505092915050565b6000819050919050565b6100d0816100bd565b81146100db57600080fd5b50565b60805160601c60a051611188610114600039600081816101e601526102970152600081816101bc015261055001526111886000f3fe6080604052600436106100705760003560e01c8063bfb231d21161004e578063bfb231d2146100f6578063ca7dd37514610138578063d38ea5bf14610175578063fa00afc71461019157610070565b806365e17c9d146100755780636bfb0d01146100a05780637fd6f15c146100cb575b600080fd5b34801561008157600080fd5b5061008a6101ba565b6040516100979190610be6565b60405180910390f35b3480156100ac57600080fd5b506100b56101de565b6040516100c29190610cf8565b60405180910390f35b3480156100d757600080fd5b506100e06101e4565b6040516100ed9190610cf8565b60405180910390f35b34801561010257600080fd5b5061011d60048036038101906101189190610aa0565b610208565b60405161012f96959493929190610d13565b60405180910390f35b34801561014457600080fd5b5061015f600480360381019061015a9190610aa0565b610291565b60405161016c9190610cf8565b60405180910390f35b61018f600480360381019061018a9190610aa0565b6102f4565b005b34801561019d57600080fd5b506101b860048036038101906101b39190610a51565b610755565b005b7f000000000000000000000000000000000000000000000000000000000000000081565b60015481565b7f000000000000000000000000000000000000000000000000000000000000000081565b60026020528060005260406000206000915090508060000154908060010160009054906101000a900473ffffffffffffffffffffffffffffffffffffffff16908060020154908060030154908060040160009054906101000a900473ffffffffffffffffffffffffffffffffffffffff16908060040160149054906101000a900460ff16905086565b600060647f000000000000000000000000000000000000000000000000000000000000000060646102c29190610dbc565b60026000858152602001908152602001600020600301546102e39190610e43565b6102ed9190610e12565b9050919050565b6002600054141561033a576040517f08c379a000000000000000000000000000000000000000000000000000000000815260040161033190610cd8565b60405180910390fd5b6002600081905550600061034d82610291565b9050600060026000848152602001908152602001600020905060008311801561037857506001548311155b6103b7576040517f08c379a00000000000000000000000000000000000000000000000000000000081526004016103ae90610c98565b60405180910390fd5b813410156103fa576040517f08c379a00000000000000000000000000000000000000000000000000000000081526004016103f190610c78565b60405180910390fd5b8060040160149054906101000a900460ff161561044c576040517f08c379a000000000000000000000000000000000000000000000000000000000815260040161044390610c38565b60405180910390fd5b3073ffffffffffffffffffffffffffffffffffffffff168160040160009054906101000a900473ffffffffffffffffffffffffffffffffffffffff1673ffffffffffffffffffffffffffffffffffffffff1614156104df576040517f08c379a00000000000000000000000000000000000000000000000000000000081526004016104d690610cb8565b60405180910390fd5b8060040160009054906101000a900473ffffffffffffffffffffffffffffffffffffffff1673ffffffffffffffffffffffffffffffffffffffff166108fc82600301549081150290604051600060405180830381858888f1935050505015801561054d573d6000803e3d6000fd5b507f000000000000000000000000000000000000000000000000000000000000000073ffffffffffffffffffffffffffffffffffffffff166108fc8260030154846105989190610e9d565b9081150290604051600060405180830381858888f193505050501580156105c3573d6000803e3d6000fd5b5060018160040160146101000a81548160ff0219169083151502179055508060010160009054906101000a900473ffffffffffffffffffffffffffffffffffffffff1673ffffffffffffffffffffffffffffffffffffffff166323b872dd303384600201546040518463ffffffff1660e01b815260040161064693929190610c01565b600060405180830381600087803b15801561066057600080fd5b505af1158015610674573d6000803e3d6000fd5b505050503373ffffffffffffffffffffffffffffffffffffffff168160040160009054906101000a900473ffffffffffffffffffffffffffffffffffffffff1673ffffffffffffffffffffffffffffffffffffffff168260010160009054906101000a900473ffffffffffffffffffffffffffffffffffffffff1673ffffffffffffffffffffffffffffffffffffffff167f8b4c9c8a607d67b321582dd8461041b1dc2ceeca70c8b7f37f8e02095cf2e76d868560020154866003015460405161074093929190610d74565b60405180910390a45050600160008190555050565b6002600054141561079b576040517f08c379a000000000000000000000000000000000000000000000000000000000815260040161079290610cd8565b60405180910390fd5b6002600081905550600081116107e6576040517f08c379a00000000000000000000000000000000000000000000000000000000081526004016107dd90610c58565b60405180910390fd5b600160008154809291906107f990610f61565b91905055508273ffffffffffffffffffffffffffffffffffffffff166323b872dd3330856040518463ffffffff1660e01b815260040161083b93929190610c01565b600060405180830381600087803b15801561085557600080fd5b505af1158015610869573d6000803e3d6000fd5b505050506040518060c0016040528060015481526020018473ffffffffffffffffffffffffffffffffffffffff1681526020018381526020018281526020013373ffffffffffffffffffffffffffffffffffffffff168152602001600015158152506002600060015481526020019081526020016000206000820151816000015560208201518160010160006101000a81548173ffffffffffffffffffffffffffffffffffffffff021916908373ffffffffffffffffffffffffffffffffffffffff160217905550604082015181600201556060820151816003015560808201518160040160006101000a81548173ffffffffffffffffffffffffffffffffffffffff021916908373ffffffffffffffffffffffffffffffffffffffff16021790555060a08201518160040160146101000a81548160ff0219169083151502179055509050503373ffffffffffffffffffffffffffffffffffffffff168373ffffffffffffffffffffffffffffffffffffffff167f655a0cf9c8db81512be9a76dc1c5ae5380b8816ce6ad659cd61b715e2999d59a6001548585604051610a1293929190610d74565b60405180910390a36001600081905550505050565b600081359050610a3681611124565b92915050565b600081359050610a4b8161113b565b92915050565b600080600060608486031215610a6657600080fd5b6000610a7486828701610a27565b9350506020610a8586828701610a3c565b9250506040610a9686828701610a3c565b9150509250925092565b600060208284031215610ab257600080fd5b6000610ac084828501610a3c565b91505092915050565b610ad281610ee3565b82525050565b610ae181610ed1565b82525050565b610af081610ef5565b82525050565b610aff81610f3d565b82525050565b6000610b12601183610dab565b9150610b1d82611008565b602082019050919050565b6000610b35601f83610dab565b9150610b4082611031565b602082019050919050565b6000610b58603383610dab565b9150610b638261105a565b604082019050919050565b6000610b7b601283610dab565b9150610b86826110a9565b602082019050919050565b6000610b9e601383610dab565b9150610ba9826110d2565b602082019050919050565b6000610bc1601f83610dab565b9150610bcc826110fb565b602082019050919050565b610be081610f33565b82525050565b6000602082019050610bfb6000830184610ac9565b92915050565b6000606082019050610c166000830186610ad8565b610c236020830185610ad8565b610c306040830184610bd7565b949350505050565b60006020820190508181036000830152610c5181610b05565b9050919050565b60006020820190508181036000830152610c7181610b28565b9050919050565b60006020820190508181036000830152610c9181610b4b565b9050919050565b60006020820190508181036000830152610cb181610b6e565b9050919050565b60006020820190508181036000830152610cd181610b91565b9050919050565b60006020820190508181036000830152610cf181610bb4565b9050919050565b6000602082019050610d0d6000830184610bd7565b92915050565b600060c082019050610d286000830189610bd7565b610d356020830188610af6565b610d426040830187610bd7565b610d4f6060830186610bd7565b610d5c6080830185610ac9565b610d6960a0830184610ae7565b979650505050505050565b6000606082019050610d896000830186610bd7565b610d966020830185610bd7565b610da36040830184610bd7565b949350505050565b600082825260208201905092915050565b6000610dc782610f33565b9150610dd283610f33565b9250827fffffffffffffffffffffffffffffffffffffffffffffffffffffffffffffffff03821115610e0757610e06610faa565b5b828201905092915050565b6000610e1d82610f33565b9150610e2883610f33565b925082610e3857610e37610fd9565b5b828204905092915050565b6000610e4e82610f33565b9150610e5983610f33565b9250817fffffffffffffffffffffffffffffffffffffffffffffffffffffffffffffffff0483118215151615610e9257610e91610faa565b5b828202905092915050565b6000610ea882610f33565b9150610eb383610f33565b925082821015610ec657610ec5610faa565b5b828203905092915050565b6000610edc82610f13565b9050919050565b6000610eee82610f13565b9050919050565b60008115159050919050565b6000610f0c82610ed1565b9050919050565b600073ffffffffffffffffffffffffffffffffffffffff82169050919050565b6000819050919050565b6000610f4882610f4f565b9050919050565b6000610f5a82610f13565b9050919050565b6000610f6c82610f33565b91507fffffffffffffffffffffffffffffffffffffffffffffffffffffffffffffffff821415610f9f57610f9e610faa565b5b600182019050919050565b7f4e487b7100000000000000000000000000000000000000000000000000000000600052601160045260246000fd5b7f4e487b7100000000000000000000000000000000000000000000000000000000600052601260045260246000fd5b7f6974656d20616c726561647920736f6c64000000000000000000000000000000600082015250565b7f5072696365206d7573742062652067726561746572207468616e207a65726f00600082015250565b7f6e6f7420656e6f75676820657468657220746f20636f766572206974656d207060008201527f7269636520616e64206d61726b65742066656500000000000000000000000000602082015250565b7f6974656d20646f65736e27742065786973740000000000000000000000000000600082015250565b7f43616e277420627579206f776e206974656d7300000000000000000000000000600082015250565b7f5265656e7472616e637947756172643a207265656e7472616e742063616c6c00600082015250565b61112d81610f01565b811461113857600080fd5b50565b61114481610f33565b811461114f57600080fd5b5056fea2646970667358221220d92b72d59e08713a6360010c4b7820c9731350dbbbf08f136774a264126a171e64736f6c63430008040033",
  "linkReferences": {},
  "deployedLinkReferences": {}
}